:083800000C943A1C0C94B31C5B
:103808000C94001C0C94001C0C94001C0C94001CC0
:103818000C94001C0C94001C0C94001C0C94001CB0
:103828000C94001C0C94001C0C94001C0C94001CA0
:103838000C94001C0C94001C0C94001C0C94001C90
:103848000C94731C0C94001C0C94921C0C94001C7B
:103858000C94001C0C94001C0C94001C0C94001C70
:103868000200000003000B0068380000F894EE27FF
:10387800EFBBF1E0F5BFF2E0F5BFF8E1A895A4B71A
:10388800A77FA4BFF0936000E09360008DE0A2E002
:10389800BB27ED938A95E9F780E094E0A0E0B1E0DA
:1038A800ED930197E9F7ECE6F8E385919591009798
:1038B80061F0A591B59105901590BF01F0010590B3
:1038C8000D920197E1F7FB01F0CFE0E0EEBBEFEFDF
:1038D800EDBFE4E0EEBFC0E0D2E00C94ED1EEA9349
:1038E800FA93EFB7EA931A93F8941091C600E92D6A
:1038F800F0E0E050FE4F10839394E0E4E91509F4FA
:1039080099248394E0E4E81511F48824F09A7894D3
:103918001991E991EFBFF991E9911895AA93EA9362
:10392800FA93EFB7EA93E0912303E03091F0E15086
:10393800E0932303E09122037AD2E093C600A0919A
:103948002203AF5FA0932203A03419F4E0E0E093D0
:103958002203E991EFBFF991E991A9911895AA93EA
:10396800EA93EFB7EA93A0916900A33039F45B9A20
:1039780063D2E0E0E0936900F19807C0E3E0E093E8
:103988006900E0ECE093C100F19AE991EFBFE99199
:10399800A99118951A930A9346D18F01F29B0EC0EC
:1039A800002E012A31F4A0914202C9D00E2B1F2B00
:1039B80002C05B9AF198D8010BD002C03DD25B9A45
:1039C800E0E0E09341029924F09809911991089553
:1039D800BA93AA9338D2A091C000A032E0F3A3E032
:1039E800B0E0C3D2E0935E02A9E1B0E0A0D25B9858
:1039F800E091C100E07CE860E093C100AFE0B0E096
:103A080096D210E0E0915E021E1750F421D2AFEF7B
:103A1800A083E0912303EF5FE09323031F5FF2CFBE
:103A2800F39B03C015D2A1E002C012D2A6E0A08386
:103A3800E12FFDD13E271F5F0BD20FD23E271F5F1C
:103A480007D20BD23E271F5FEC81FD81309741F5ED
:103A580018D2E09144021AD23E271F5FF9D1A091F3
:103A68004002A083E12FE3D13E271F5FF1D1A0E000
:103A7800A083E12FDCD13E271F5F00E0E0914402E4
:103A88000E1768F4FED1E02FF0E0EB5BFD4FE0810C
:103A9800EC93E12FCCD13E271F5F0F5FEFCF38C0EB
:103AA800F0D1ED2DF3D13E271F5FEBD1EC81FD81E5
:103AB80050D2EC93E12FBBD13E271F5FC9D1AC8117
:103AC800A083E12FB4D13E271F5F012F102FAD2D0A
:103AD800BB27E02FDFD1E4F4BBD1BF01A0914302A3
:103AE800BB27E0915E02F0E0AE1BBF0BEE27A10FF3
:103AF800BE1FE2E0F0E032D2EA1BFB0BE050FE4FC3
:103B0800E081DB01EC93E12F92D13E271F5FDFCFED
:103B18009FD13083E1E0E093220310932303E091E7
:103B2800E202E093C600E0912303E030E1F7AFE062
:103B3800B0E0FDD15B9AF19888243DD2D2C0AA9317
:103B480082D1E1E0E0934402EC81E03081F4ECE0E2
:103B5800E093440211E01C3050F4A4D1A12FB0E04E
:103B6800A050B04002D2D001EC931F5FF4CFAC81DB
:103B7800A63061F4E0914302F0E0EC5FFD4FB080C5
:103B8800A9E1B0E0EB2DFDD1B0924502AC81A031A6
:103B980059F48ED1133040F485D18FD1DF01E5D1AE
:103BA800D001EC931F5FF6CFAC81A33151F480D1E3
:103BB800133038F482D186D1E12F8BD1E2D11F5F47
:103BC800F7CFAC81AA3A50F1AA3A09F5EC2DA0E258
:103BD800EA02102DEC2DF0E03196EE0FFF1FB0D168
:103BE800A12FB0E0AE17BF0744F47BD16BD1E32F10
:103BF80070D1EC931F5F3F5FEDCFE3E0EC1529F444
:103C0800F89490D07894CC2401C0C39404C0E1E126
:103C1800E0935F02CC24ECE0E0934502E02FF0E073
:103C2800CAD125960895BED110E000E030E020E02A
:103C380040E050E0E0E0E0934102F29A57D1AF3F14
:103C480041F4093020F0E0E9E093410246C00F5FFB
:103C5800F5CF00934302102F49D1A23019F0E2E0CA
:103C6800E093410249D14ED1E07319F0E0E9E093C5
:103C7800410242D1EF700E2EA9E1B0E076D1E015F5
:103C880011F4F29A01C0F29837D13CD1E093420284
:103C980033D13DD141D1D0802FD139D1212F022F1D
:103CA800122FA22FBB27ED2DF5D044F40F5F24D19E
:103CB800F0E04E275F273F5F1F5FF3CF101719F023
:103CC800E0E9E093410228D1A081FA01B0E0EA17C7
:103CD800FB0719F0E8E8E0934102E0914102F0E0C7
:103CE80068D126960895E0E0E5B9ECE2E4B9539A84
:103CF8005B9AE0E0E0936E00E4BDE5BDE6BDE0EC74
:103D0800E093C100E6E0E093C200E7E1E093C4007D
:103D1800E3E0E0936900E1E0EDBBECBBE5BFE3E085
:103D2800E5BF08951A9310E010E01038F0F4D9D0E8
:103D3800A081B0E0E12FF0E0EF59FD4FF081E0E025
:103D4800EA0FFB1F1F01E12FF0E0E40DF51D3F0115
:103D5800E7B7E0FDFDCFE1E0AE2EF301132C022C16
:103D6800A0925700E8951E5FE0CFE7B7E0FDFDCFD2
:103D7800E3E0AE2EF201A0925700E895E7B7E0FD28
:103D8800FDCFE5E0AE2EF201A0925700E895F201D2
:103D9800E058FF4F2F0119910895F89444245524B1
:103DA800E0E0F0E34E165F0668F4E7B7E0FDFDCF0C
:103DB800E3E0AE2EF201A0925700E895F2013196A9
:103DC8002F01EECF44245524E0E0E0935F0278947D
:103DD800089589DF7894A0E0B0E0C7D0E0935F024F
:103DE8002BD05B9AA895A0915F02A13181F499D05C
:103DF800E1E1C7D0AAE0B0E09AD07894E1E0E5BF6D
:103E0800E0E0E5BFE091E002F091E1020995A091C0
:103E18005F02AE3E40F0C1DF84D0E0E0B2D0A2E065
:103E2800B0E0E3EAAED0F199B5DDDCCFFFCFF0E04A
:103E3800EE51FD4FE0810895E091C100E07CE06122
:103E4800E093C1000895B0D010E000E030E008959C
:103E5800E12FF0E0EE51FD4F08950F01A0914302CC
:103E6800BB27E0915E02F0E0AE1BBF0BE12FF0E054
:103E7800EA0FFB1FE050FE4FE081D001EC93E12FE9
:103E8800D6CFA12FB0E0AE51BD4F0895EE5FEC93B1
:103E9800E12FCDCFF0E0EA0FFB1FA12FB0E0AE1766
:103EA800BF070895E12FF0E0EB5BFD4F0F01089588
:103EB800E3E0E093440210E00895E12FF0E0EE59CA
:103EC800FF4F08950F01E0914302F0E03496DF01BF
:103ED8000895F0E0EA0FFB1FE050FE4FE081D001AB
:103EE8000895E12FF0E0E05AFD4F0895E02FF0E04B
:103EF800E050FE4FA0810895E12FF0E0E050FE4F22
:103F0800E0810895F0E04E275F271F5FF5CFF0E0CE
:103F18004E275F271F5F0895E12FF0E0E050FE4F26
:103F28000895AAE0B0E003D0A0E0B0E008951096AC
:103F380031F089E98A95F1F7A8951197D1F7089595
:103F4800EE0FFF1FEE0FFF1FEE0FFF1FEE0FFF1FFD
:103F58000895EF2FFF27E7FDFFEF08951B2EBF2FD2
:103F6800F12D1A2EAE2FE12D0895F999FECFFF936A
:103F7800FFB7F894A1BDB2BDF89AE0B5FFBFFF91B5
:103F88000895F99B02C0A895FCCF9FB7F894A1BDEE
:103F9800B2BDF89A80B5E81719F0E0BDFA9AF99A17
:103FA8009FBF08955A934A933A932A931A930A9370
:103FB80008955D814C813B812A811981088108958A
:00000001FF
