:100000000C9415030C94D0030C9400000C94000085
:100010000C9400000C9400000C9400000C94000060
:100020000C9400000C9400000C9400000C94000050
:100030000C9400000C9400000C9400000C94000040
:100040000C946E030C9417040C9477030C9400002A
:100050000C94AA030C94F0030C9400000C94000080
:100060000C9400000C940000000102030405060734
:1000700008090C0D1115191A203844474A4E5256DA
:1000800057585C60616265696D71757B8687888988
:1000900026010203040506070809090900000000FB
:1000A0000000000000000000000A0B0B0B0B00001A
:1000B0000000000000000000000000000000000040
:1000C00000000C0C0C0C0D0D0D0D000000000000CC
:1000D00000000000000000000000000C0C0C0C0AE6
:1000E0000D0D0D0D000000000000000000000000DC
:1000F000000000000E0000000000000000000000F2
:1001000000000000000000000000000000260102C6
:1001100003040506070809090900000000000000A3
:10012000000000000000101010101010101010102F
:100130001010101010101010101010101010000FD0
:100140000F0F0F0F0F1111111111111111111111A9
:1001500011121212000000001313130A14141414C5
:1001600015151515161616160000000000000000E3
:100170000017180A191919191A1A1A1A27272727DE
:100180001B1C00000000000000001D1D1D000000E1
:10019000000000000000000000000000000000005F
:1001A000000000101010101010101010101010107F
:1001B0001010101010101010101010000F0F0F0F53
:1001C0000F0F111111111111111111111111121221
:1001D00012000000001D1D1D0000000000000000B6
:1001E00000000000000000000000000000000A19EC
:1001F0001919191A1A1A1A0000000000000000004C
:1002000000000000000000000000000000000000EE
:1002100000000000000000000000000000000000DE
:1002200000000000000000000000000000000000CE
:1002300000000000000000000000000000000000BE
:1002400000000000000000000000000000000000AE
:1002500000001E0000000000000000000000000080
:10026000000000000000000000000000000000008E
:10027000000000000000000000000000000000007E
:10028000000000000000000000000000000000006E
:10029000000000000000000000000000000000005E
:1002A000000000000000000000000000000000004E
:1002B0000000000000000A00000000000000000034
:1002C0000000000000000000000000000000001F0F
:1002D0001F1F0000000000000000000000000000E0
:1002E00000000000000000002020200000000000AE
:1002F00000000000000000000000000000000000FE
:1003000000210000000000000000000000000000CC
:100310000000000000000000000022222222222211
:10032000272727272727272723232323232323237D
:10033000232300131313000000000000000000003E
:1003400000000000000000000000000003000000AA
:10035000000000000000000000000000000000009D
:100360000000000000240000000000000000000069
:100370000000000000000000000000000000250058
:10038000000000000000000000000000000000006D
:10039000000000000000000000010203060B0C0D2D
:1003A0000E0F101112132324252628292A2B2C2D59
:1003B0002E2F30313B6C6D0000000001000000006A
:1003C000000001010101010101010101010101011F
:1003D0000100010101010001010100000000000015
:1003E000000000000000000000000000000000000D
:1003F0000000000101000000C0C1C1810140C30133
:1004000003C00280C241C60106C00780C741050083
:10041000C5C1C4810440CC010CC00D80CD410F008A
:10042000CFC1CE810E400A00CAC1CB810B40C901A9
:1004300009C00880C841D80118C01980D9411B00E3
:10044000DBC1DA811A401E00DEC1DF811F40DD0101
:100450001DC01C80DC411400D4C1D5811540D701DA
:1004600017C01680D641D20112C01380D3411100AB
:10047000D1C1D0811040F00130C03180F141330052
:10048000F3C1F28132403600F6C1F7813740F50101
:1004900035C03480F4413C00FCC1FD813D40FF018A
:1004A0003FC03E80FE41FA013AC03B80FB4139002B
:1004B000F9C1F88138402800E8C1E9812940EB0101
:1004C0002BC02A80EA41EE012EC02F80EF412D0083
:1004D000EDC1EC812C40E40124C02580E5412700DA
:1004E000E7C1E68126402200E2C1E3812340E10129
:1004F00021C02080E041A00160C06180A141630073
:10050000A3C1A28162406600A6C1A7816740A50180
:1005100065C06480A4416C00ACC1AD816D40AF0189
:100520006FC06E80AE41AA016AC06B80AB416900AA
:10053000A9C1A88168407800B8C1B9817940BB01E0
:100540007BC07A80BA41BE017EC07F80BF417D0002
:10055000BDC1BC817C40B40174C07580B5417700D9
:10056000B7C1B68176407200B2C1B3817340B101A8
:1005700071C07080B041500090C191815140930191
:1005800053C052809241960156C057809741550002
:1005900095C1948154409C015CC05D809D415F0089
:1005A0009FC19E815E405A009AC19B815B40990128
:1005B00059C058809841880148C0498089414B0002
:1005C0008BC18A814A404E008EC18F814F408D0180
:1005D0004DC04C808C41440084C1858145408701D9
:1005E00047C046808641820142C04380834141002A
:1005F00081C1808140400000803F01000200010075
:100600000500010001002D4E414E00494E460000FC
:1006100001007B02FE0501007D02000602000300CE
:1006200002060100DC0204060000F894EE27EFBB8E
:10063000F1E0F5BFE5BFF8E1A895A4B7A77FA4BF97
:10064000F0936000E09360008DE0A2E0BB27ED93A3
:100650008A95E9F780E094E0A0E0B1E0ED9301979E
:10066000E9F7E0E1F6E085919591009761F0A591B9
:10067000B59105901590BF01F00105900D9201977D
:10068000E1F7FB01F0CFE0E0EEBBEFEFEDBFE4E020
:10069000EEBFC0E0D2E00C94350D65917491E62F69
:1006A000F72F22960895EE2DF070DF01E881F0E03B
:1006B000AE27BF27EFEFF0E0EA23FB23A6EFB3E07E
:1006C000EE0FFF1FEA0FFB1F0E94D40FFD2DE0E08D
:1006D000EA27FB27DE2EEF2E21960895EA93E1E02C
:1006E000EDBBECBBE0E0E0936900E9911895AA93BB
:1006F000EA93FA93EFB7EA931A930A93F894109156
:10070000C0000091C600E12FEC71D9F4E0917002B5
:10071000F0E0E85FFD4F0083A0917002AF5FA0930F
:100720007002A03419F4E0E0E0937002A09172022C
:10073000AF5FA0937202A03421F4E0E0E093720274
:10074000F09A789409911991E991EFBFF991E991A3
:10075000A9911895AA93EA93FA93EFB7EA93F894BC
:10076000E091DB02E030A9F0E150E093DB02E091A0
:10077000DA02F0E0E656FD4FE081E093C600A0917A
:10078000DA02AF5FA093DA02A03419F4E0E0E0935C
:10079000DA027894E991EFBFF991E991A99118955E
:1007A000AA93EA93EFB7EA93A0916900A33061F4AA
:1007B0005B9AE091C100E07CE061E093C100E0E081
:1007C000E0936900F49807C0E3E0E0936900E0EC8F
:1007D000E093C100F49AE991EFBFE991A9911895CE
:1007E0006A937A938A93EA93FA93EFB7EA9382E053
:1007F0008A95F1F7E0917800F091790066277727E4
:10080000E0937302F0937402609375027093760222
:10081000F19AE0E2E0937C00EFE4E0937A00E99162
:10082000EFBFF991E9918991799169911895EA93CE
:10083000EFB7EA93E0917B02E03031F4EFEFEEBDE9
:10084000E1E0E0937B0201C02A98EFECE0937A00AC
:10085000E991EFBFE991189582E08A95F1F72A981E
:10086000A881A23070F4E881EEBDE03019F4E0E038
:10087000FCE302C0E0E0F0E6E983FA83EDB5E0389E
:10088000E8F3A881A33019F4E0E0E983EA83A881C2
:10089000A23079F4A0917702B09178028091790228
:1008A00090917A02E0E10E94980FEEBDEDB5E0383C
:1008B000E8F3EA81F070EEBD2A98EDB5E038E8F390
:1008C000E981EEBDEDB5E038E8F3239608951A937B
:1008D0000A93F3D28F01F59B1CC0002E012A69F404
:1008E000E0E0E0937C02E0937002F098E0918002F7
:1008F000EA936AD10E2B1F2B08C05B9AF098E0E0B8
:10090000E0937C02E0937002F4981A930A9312D059
:100910000DC0F098E0E0E0937C02E0937002E0917B
:10092000C100E07CE061E093C1005B9A31D40991A1
:10093000199108950E94261010E000E030E0A09187
:10094000C000A032E0F3A3E0B0E00E94F10FE0931A
:100950007D02E9E1F0E0FA93EA930E94E20D5B98F0
:10096000E091C100E07CE860E093C100EFE0F0E0DE
:10097000FA93EA930E94E20D10E0E0917D021E17C7
:1009800068F4E12FF0E0E656FD4FAFEFA083E09171
:10099000DB02EF5FE093DB021F5FEFCFF69B06C049
:1009A000E12FF0E0E656FD4FA1E005C0E12FF0E0B9
:1009B000E656FD4FA6E0A083E12FF0E0E656FD4F9E
:1009C000E0813E271F5FE12FF0E0BF01E656FD4FBB
:1009D0000F01A0917E02BB27E0917D02F0E0AE1BEB
:1009E000BF0BFB01EA0FFB1FE85FFD4FE081D00169
:1009F000EC93E12FF0E0E656FD4FE0813E271F5FCC
:100A0000E12FF0E0BF01E656FD4F0F01A0917E02FD
:100A1000BB27E0917D02F0E0AE1BBF0BFB01EA0FAC
:100A2000FB1FE85FFD4FE081D001EC93E12FF0E088
:100A3000E656FD4FE0813E271F5FEC81FD81309738
:100A400011F00C946605A12FB0E0A656BD4FE091C1
:100A50007F02EE5FEC93E12FF0E0E656FD4FE08180
:100A60003E271F5FE12FF0E0E656FD4FA0916F0299
:100A7000A083E12FF0E0E656FD4FE0813E271F5FA7
:100A8000E12FF0E0E656FD4FA0E0A083E12FF0E07B
:100A9000E656FD4FE0813E271F5F00E0E0917F02B8
:100AA0000E1798F4A12FB0E0A656BD4FE02FF0E04E
:100AB000EF57FD4FE081EC93E12FF0E0E656FD4F5C
:100AC000E0813E271F5F0F5FE9CF5DC0A12FB0E03F
:100AD000A656BD4FE0916D02EE5FEC93E12FF0E082
:100AE000E656FD4FE0813E271F5FA12FB0E0A656DE
:100AF000BD4FEC81FD810E94A90FEC93E12FF0E046
:100B0000E656FD4FE0813E271F5FE12FF0E0E656FD
:100B1000FD4FAC81A083E12FF0E0E656FD4FE08170
:100B20003E271F5F012F102FA0916D02BB27E02FE2
:100B3000F0E0EA0FFB1FA12FB0E0AE17BF071CF5D6
:100B4000E12FF0E0E656FD4FBF01A0917E02BB27EA
:100B5000E0917D02F0E0AE1BBF0BEE27A10FBE1FA0
:100B6000E2E0F0E00E94E20FEA1BFB0BE85FFD4FC2
:100B7000E081DB01EC93E12FF0E0E656FD4FE081F0
:100B80003E271F5FD1CFE12FF0E0E656FD4F3083C7
:100B9000E1E0E093DA021093DB02E0919A02E09345
:100BA000C600E091DB02E030E1F7EFE0F0E0FA931D
:100BB000EA930E94E20D5B9AF498E0E0E0937202FF
:100BC0000E942D10269608952797E0E0EC83ED8390
:100BD000EE830E94241010E000E030E020E050E0BE
:100BE00041E010E01F3160F4E12FF0E0E856FC4FE7
:100BF000A491ED85EA1711F440E01A871F5FF2CF48
:100C0000403011F00C94DF06E7EBF3E0DF01EA85FA
:100C1000F0E0EA0FFB1F5491E6EDF3E0DF01EA8517
:100C2000F0E0EA0FFB1F24915030E9F000E0E09182
:100C30006D02F0E03196A02FB0E0AE17BF0764F46C
:100C4000A02FB0E0AF57BD4FE02FF0E0E85BFD4FC5
:100C5000E081EC930F5FEBCFEA85E0936E02EA93BD
:100C6000B4D000E0ACC0EA85A9E1EA9FF001E0570A
:100C7000FF4FDF01E02FF0E0EA0FFB1F04900C862E
:100C800000E0083110F00C94DC06EA85A9E1EA9F47
:100C9000F001E057FF4FDF01E02FF0E0EA0FFB1F0C
:100CA000E491AC85EA1711F40C94BB06A02FBB2786
:100CB000EB85F0E00E94E20FEA1BFB0B3E2F3017A2
:100CC00010F00C94B906AC85EBE00E94B30F0E2E29
:100CD000EDE00E94B80FE02909F1E32FF0E0EF57B3
:100CE000FD4FCF01EC85F0E0E859FF4F6491772785
:100CF000A32FBB27EB85F0E0AE0FBF1FE02FF0E086
:100D00000E94E20FEA1BFB0BE60FF71FE050F040DA
:100D1000DF010E94F10FDC01EC9329C0F894EC850F
:100D2000F0E03B97A1E6B2E00E94A40FAE0FBF1F18
:100D30000E94C90FEE83FF8368877987E32FF0E075
:100D4000EF57FD4FBF01A32FBB27EB85F0E0AE0FA0
:100D5000BF1FE02FF0E00E94E20FEA1BFB0BDE0159
:100D60001696AE0FBF1FEC91DB01EC9378943F5FBA
:100D7000A6CFE0E0EB87EA85A9E1EA9FF001E05722
:100D8000FF4FDF01E02FF0E0EA0FFB1F04900C861D
:100D9000EB85EF5FEB87EA85A9E1EA9FF001E05779
:100DA000FF4FDF01E02FF0E0EA0FFB1FE491E0309E
:100DB00009F408E10F5F65CF30937F0230E0E42F44
:100DC000F0E00E942B102E9608950E94241010E04F
:100DD00000E030E020E050E0EE81A9E1EA9FF00180
:100DE000E057FF4F249100E0E0916D02F0E0319672
:100DF000A02FB0E0AE17BF0714F00C945907EE8196
:100E0000A9E1EA9FF001E057FF4FDF01E02FF0E09A
:100E1000EA0FFB1FE491E21759F1A02FBB27E52F42
:100E2000F0E00E94E20FEA1BFB0B3E2F3017F8F4B4
:100E3000E22FF0E0E859FF4F64917727A32FBB27FB
:100E4000EE27A50FBE1FE02FF0E00E94E20FEA1B85
:100E5000FB0BE60FF71FE050F040DF01E32FF0E05F
:100E6000EF57FD4FE0810E940D103F5FDFCF50E054
:100E7000EE81A9E1EA9FF001E057FF4FDF01E02F8B
:100E8000F0E0EA0FFB1F24915F5FEE81A9E1EA9F8A
:100E9000F001E057FF4FDF01E02FF0E0EA0FFB1F0A
:100EA000E491E03021F4E0916D02EF5F0E2F0F5FCF
:100EB0009BCF0E942B10279608952297E0E0E883AD
:100EC000E9830E94241010E000E030E020E050E0D0
:100ED000E0937C02F59AE02FF0E0E85FFD4FA081FF
:100EE000AF3F41F4093020F0E0E9E0937C0249C1D2
:100EF0000F5FF1CF00937E02102FE02FF0E0E85F4C
:100F0000FD4FA081A23019F0E2E0E0937C02E12FD6
:100F1000F0E0E85FFD4FE081AE81BF81F0E0EA27BD
:100F2000FB27EE83FF831F5FE12FF0E0E85FFD4FBB
:100F3000E081E07319F0E0E9E0937C02E12FF0E05A
:100F4000E85FFD4FE081EF700E2EA9E1B0E00E9456
:100F5000F10FE01511F4F59A01C0F598E12FF0E0DA
:100F6000E85FFD4FE081AE81BF81F0E0EA27FB271B
:100F7000EE83FF831F5FE12FF0E0E85FFD4FE0812C
:100F8000E0938002A0918002A33239F520E0243062
:100F900020F5E22FF0E0BF01E85AFF4F0F01E12FEB
:100FA000F0E03396E60FF71FE85FFD4FE081D001D8
:100FB0000E940D10E22FF0E0BF01E45AFF4F0F0135
:100FC000E12FF0E03796E60FF71FE85FFD4FE08175
:100FD000D0010E940D102F5FDACFA0918002A632BF
:100FE00019F4E0E0EA9307D4A0918002AB32D1F487
:100FF000F894EA2DA4E1B1E0F0E0EE0FFF1FAE0F90
:10100000BF1FE0917302F09174020E94051050908E
:10101000730260907402A5E2B1E0E1E00E940D105D
:10102000789476D3A0918002AD32B1F420E02430E0
:1010300098F4E22FF0E0BF01E759FF4F0F01E12FD5
:10104000F0E03296E60FF71FE85FFD4FE081D00138
:101050000E940D102F5FEBCFA0918002AE32B1F451
:1010600020E0243098F4E22FF0E0BF01E359FF4F75
:101070000F01E12FF0E03296E60FF71FE85FFD4F1A
:10108000E081D0010E940D102F5FEBCFA091800274
:10109000AF36D1F4F894EA2DACE1B1E0F0E0EE0F18
:1010A000FF1FAE0FBF1FE0917302F09174020E9408
:1010B00005107090730280907402A5E2B1E0E1E047
:1010C0000E940D10789424D3E12FF0E0E85FFD4FEB
:1010D000E081AE81BF81F0E0EA27FB27EE83FF834A
:1010E0001F5FE12FF0E0E85FFD4FE081E0936D02CC
:1010F000E12FF0E0E85FFD4FE081AE81BF81F0E0DD
:10110000EA27FB27EE83FF831F5F512F052F152F43
:10111000A52FBB27E0916D02F0E0EA0FFB1FA12F86
:10112000B0E0AE17BF07D4F40F5FA32FB0E0A85B09
:10113000BD4FE12FF0E0E85FFD4FE081EC93E12F40
:10114000F0E0E85FFD4FE081AE81BF81F0E0EA278B
:10115000FB27EE83FF833F5F1F5FDACF101719F085
:10116000E0E9E0937C02E12FF0E0E85FFD4FA08131
:10117000EE81FF81B0E0EA17FB0719F0E8E8E093A1
:101180007C02E0917C02F0E00E942B1028960895EA
:101190001A9310E010E0103468F4E12FF0E0E85FFB
:1011A000FD4FA0E0A083E12FF0E0E656FD4FA083C5
:1011B0001F5FF1CF10E0193168F4E12FF0E0E85B38
:1011C000FD4FA0E0A083E12FF0E0EF57FD4FA0839B
:1011D0001F5FF1CF19910895A895E8E3E0936000AF
:1011E000EEE0E0936000E0E0E5B9ECE2E4B9E0E0D5
:1011F000E8B9E7B9539A5B9A569A579A5E985F98FE
:10120000E0936E00E4BDE5BDE6BDE093C000E0EC18
:10121000E093C100E6E0E093C200E0E0E093C500A7
:10122000E7E1E093C400E0E0E0938000E093810018
:10123000E0938500E0938400E0938700E0938600CC
:10124000E0938900E0938800E0938B00E0938A00AC
:10125000E093B600E093B000E093B100E093B200F9
:10126000E093B300E093B400E3E0E0936900E1E0D1
:10127000EDBBECBBE0E0E0936800E0936E00E09330
:101280006F00E0937000E0E8E0BFE0E0E0937B00F7
:10129000EFE3E0937E00E0E2E0937C00EFECE0938C
:1012A0007A00E0917B00E03029F4E0E0E03011F4D6
:1012B000E0E001C0E1E0E0937B00E3E5ECBDE0E0CD
:1012C000EDBD08956C97E0E0EC83ED83EE83EF8352
:1012D0001A930A9300E010E01430E0F4E12FF0E0FC
:1012E000BF01DE011296EA0FFB1F0F01FB01E85A56
:1012F000FF4FDF010E94F10FD001EC93133041F456
:10130000EA81FB816C817D81EE87FF87688B798B19
:101310001F5FE2CF10E01430E0F4E12FF0E0BF01F6
:10132000DE011296EA0FFB1F0F01FB01E45AFF4F8B
:10133000DF010E94F10FD001EC93133041F4EA81F8
:10134000FB816C817D81EA8BFB8B6C8B7D8B1F5FBE
:10135000E2CF10E01430E0F4E12FF0E0BF01DE0155
:101360001296EA0FFB1F0F01FB01E759FF4FDF0148
:101370000E94F10FD001EC93133041F4EA81FB811C
:101380006C817D81EA8FFB8F6C8F7D8F1F5FE2CF39
:1013900010E01430E0F4E12FF0E0BF01DE0112961E
:1013A000EA0FFB1F0F01FB01E359FF4FDF010E9412
:1013B000F10FD001EC93133041F4EA81FB816C8191
:1013C0007D81EE8BFF8B688F798F1F5FE2CFA091BD
:1013D0007302B091740280917502909176020E941E
:1013E0001E10ECF5E0917302F091740260917502A9
:1013F000709176020E94530EDF01CB01E091000252
:10140000F091010260910202709103020E94260F86
:10141000A0910402B091050280910602909107020A
:101420000E94860E0E941C0EEE83FF8368877987D8
:10143000AE81BF8188859985A13CEFEFBE07E0E0D2
:101440008E07E0E09E0744F0E0ECFFEF60E070E024
:10145000EE83FF8368877987A985AA232AF4E0E0D1
:10146000EE83EF83E887E987AA8DBB8D8C8D9D8DF8
:10147000EE89FF89688D798D0E94860EDF01CB0190
:10148000E0E0F0E060E871E40E94260FAE81BF81E9
:10149000888599850E94D90F0E94D80E0E941C0E43
:1014A0007F936F93FF93EF93AA8DBB8D8C8D9D8D52
:1014B000E8E0F0E260E879E30E94260F0E941C0E4B
:1014C00066277727AF91BF918F919F910E94AE0FB2
:1014D0000E948B0FE0937702F09378026093790279
:1014E00070937A02EA8DFB8D6C8D7D8DA0917702D1
:1014F000B09178028091790290917A020E94D90F7E
:101500000E946B0F19F010F00C94900AEA8DFB8D7D
:101510006C8D7D8DA7E7B2E00E941C0E0E94CF0F5C
:10152000E0917702F09178026091790270917A02ED
:101530000E94530EA8E0B0E280E899E30E94D80E22
:10154000E0936502F093660260936702709368020D
:10155000E0916502F0916602609167027091680205
:10156000AA8DBB8D8C8D9D8D0E94860EA0E0B0E073
:1015700088EC92E40E94D80E7F936F93FF93EF93D1
:10158000AA8DBB8D8C8D9D8DEE89FF89688D798D9F
:101590000E94860EAF91BF918F919F910E94260F5E
:1015A000E0936902F0936A0260936B0270936C029D
:1015B000AA89BB898C899D89EE85FF85688979898F
:1015C0000E94860EEA87FB876C877D87AA85BB858C
:1015D0008C859D85A030E0E0BE07E0E28E07E1E467
:1015E0009E0741F4ACE0B0E0EAE00E940D105F9885
:1015F0005E98AA24AA85BB858C859D85A030E0E0F5
:10160000BE07E0EA8E07E1E49E0749F4ACE0B0E0F3
:10161000E4E10E940D105F985E9AE1E0AE2EAA858B
:10162000BB858C859D85A030E0E0BE07E0EF8E078E
:10163000E1E49E0749F4ACE0B0E0EEE10E940D1059
:101640005F9A5E98E2E0AE2EAA85BB858C859D856B
:10165000A030E0E0BE07E8E48E07E2E49E0749F42C
:10166000ACE0B0E0E2E30E940D105F9A5E9AE3E026
:10167000AE2EA4E2B1E00E94F10FAE1649F1EA2DC0
:10168000A6E3B1E0F0E00E94A40FAE0FBF1F0E94DE
:10169000E90FE0930402F093050260930602709351
:1016A0000702EA2DA6E2B1E0F0E00E94A40FAE0F1F
:1016B000BF1F0E94E90FE0930002F09301026093C4
:1016C000020270930302EA2DA4E2B1E00E940D1021
:1016D000AA85BB858C859D85E0E0F0E068EC72E42E
:1016E0000E94260FA0916902B0916A0280916B025C
:1016F00090916C020E94D80EE0936102F093620216
:101700006093630270936402198108816E96089554
:101710000E94261007EF12EF29EC3CE0E72DF82D90
:10172000E519F609BE2ECF2EEB2DFC2D6627772767
:101730000E94530EDF01CB01E0E0F7EF62E777E4B0
:101740000E94260FE0930002F093010260930202D0
:1017500070930302EA2DA6E2B1E0F0E00E94A40F2C
:10176000AE0FBF1FE0910002F091010260910202F2
:10177000709103020E94FD0FE52DF62D6627772755
:101780000E94530E7F936F93FF93EF93F901A09103
:101790000002B0910102809102029091030266273B
:1017A00077270E94530E0E94D80EAF91BF918F9160
:1017B0009F910E94DC0F0E94860EE0930402F0933A
:1017C00005026093060270930702EA2DA6E3B1E0DA
:1017D000F0E00E94A40FAE0FBF1FE0910402F09151
:1017E000050260910602709107020E94FD0F0E949F
:1017F0002D10249608951A930A9300E010E000E05B
:1018000010E00B38E0E01E07C4F4E2E6F0E0E01779
:10181000F10719F404E610E00DC0F801E050F040C3
:101820000F01AAE8B0E0A00FB11F0E94F10FD00194
:101830000E940D100F5F1F4FE4CF00E010E0043056
:10184000E0E01E079CF5F801A6E3B1E00E94A40FBA
:10185000AE0FBF1FE0E0F0E060E070E00E94FD0F1F
:10186000F801A6E2B1E00E94A40FAE0FBF1FE0E0B6
:10187000F0E060E87FE30E94FD0FF801A4E1B1E031
:10188000EE0FFF1FAE0FBF1FE9ECFCE00E9405103A
:10189000F801ACE1B1E0EE0FFF1FAE0FBF1FE0ECAF
:1018A000FFEF0E9405100F5F1F4FC9CFE0E0E093EC
:1018B0000402E0930502E0930602E0930702E0E0F1
:1018C000F0E060E87FE3E0930002F09301026093B0
:1018D000020270930302E9ECFCE05E2E6F2EE0EC56
:1018E000FFEF7E2E8F2EA4E2B1E0E1E00E940D100A
:1018F000A4E2B1E00E94F10FAE2EB3C01A930A9396
:1019000000E010E0AA81A13011F00C94D50CA4E203
:10191000B1E00E94F10FA4E1B1E0F0E0EE0FFF1F93
:10192000AE0FBF1F0E94ED0F5E2E6F2EA4E2B1E03E
:101930000E94F10FACE1B1E0F0E0EE0FFF1FAE0F3F
:10194000BF1F0E94ED0F7E2E8F2EA4E2B1E00E94F9
:10195000F10FA6E3B1E0F0E00E94A40FAE0FBF1FAD
:101960000E94E90FE0930402F093050260930602DF
:1019700070930702A4E2B1E00E94F10FA6E2B1E089
:10198000F0E00E94A40FAE0FBF1F0E94E90FE0938A
:101990000002F09301026093020270930302A4E23A
:1019A000B1E00E94F10FAE2E5CC0A4E2B1E0E1E034
:1019B0000E940D10AE2E00E010E00430E0E01E07A3
:1019C0009CF5F801A6E3B1E00E94A40FAE0FBF1F83
:1019D000E0E0F0E060E070E00E94FD0FF801A6E2B8
:1019E000B1E00E94A40FAE0FBF1FE0E0F0E060E89E
:1019F0007FE30E94FD0FF801A4E1B1E0EE0FFF1FAD
:101A0000AE0FBF1FE9ECFCE00E940510F801ACE14D
:101A1000B1E0EE0FFF1FAE0FBF1FE0ECFFEF0E9423
:101A200005100F5F1F4FC9CFE0E0E0930402E09381
:101A30000502E0930602E0930702E0E0F0E060E8D0
:101A40007FE3E0930002F09301026093020270933F
:101A50000302E9ECFCE05E2E6F2EE0ECFFEF7E2E41
:101A60008F2E19810881239608952797E0E0E88357
:101A7000E983EA83EB83EC8320E030E040E050E050
:101A8000EFEFFFEFDE2EEF2EA0E0B0E0E1E10E94ED
:101A90000D10A895AD81BE81EEEFFFEF0E94C30F40
:101AA0000E2EAB81BC81EEEFFFE30E94BD0FE0295B
:101AB000D9F0EB81FC81FA93EA930E944D03ED8308
:101AC000FE830E94A90FEA83ED81E983EA81EA930C
:101AD0000E945303E981EA930E945303EB81FC8146
:101AE0003296EB83FC83D6CFED2DFE2DA6E4B1E03C
:101AF0000E94051071DBEDB5EEB578945F985E9AA3
:101B0000A6E4B1E00E94ED0F0F01A8E4B1E00E944D
:101B1000ED0FE015F10579F5A5E2B1E00E94F10FB6
:101B2000EA93ECDEF5DDE0917702F0917802FA932A
:101B3000EA93E2E0EA930E942C04C4DBE091C10046
:101B4000E07CE061E093C1005B9AA895F49B02C041
:101B50000E946704EFECE0937A00B4DB2A9AE091EC
:101B60007702F0917802FA93EA93E2E0EA930E9416
:101B70002C042A98EACFE091C100E07CE061E09378
:101B8000C1005B9AA895F49B02C00E946704EFE035
:101B9000E0937A00E0E0E0937302E0937402E09354
:101BA0007502E09376028EDB2A9AE0917702F0913B
:101BB0007802FA93EA93E2E0EA930E942C042A98CE
:101BC000E1CFFFCFE991F991309631F08AE98A951A
:101BD000F1F7A8953197D1F70895552342F450387D
:101BE00011F4E0FF04C03196691F791F6BF050E8D3
:101BF000572711F45F93CAC05F3F31F0660F000CA6
:101C000057956795752F08955F9300200AF0CAC015
:101C1000C3C050E8192E1522880F991F9527550F1C
:101C2000879550E8072E0522660F771F7527550FF9
:101C300067950895689401C0E8945F93F2DF703867
:101C400018F07F3F08F4A2C056E1571BAAF4519543
:101C500058300EF4593030F0EFEFFFEF6FEF7FE7C1
:101C600077F91AC077275523B9F0EE0FFF1F661FCB
:101C7000771F5A95D1F710C07727583028F0EF2FEB
:101C8000F62F672F5850F9CF552331F07695679589
:101C9000F795E7955A95D1F700200AF441D15F9165
:101CA0000895689401C0E894309760407040B1F0A6
:101CB000002426F0772312F4009432D1172E7EE10F
:101CC000112032F07A95EE0FFF1F661F111CF9CF1D
:101CD000EF2FF62F612D5F938ADF5F9108954F9369
:101CE000AF01FD01DA01AB01BC01CA01402D012C9D
:101CF000142E4F910895EA0FFB1F681F0895E09579
:101D0000F0956095EF5FFF4F6F4F08955F9381DF10
:101D1000903849F150E81526703821F1572F591B9A
:101D20002BF112F4DCDFFACF583118F0AA27BB27C9
:101D30008827583028F0AB2FB82F88275850F9CF74
:101D4000552329F08695B795A7955A95D9F7502D23
:101D5000512572F0D0DF38F46795F795E7957395C4
:101D600013F420C0BCDF43DF5F910895D8F7FBCFA9
:101D7000EA1BFB0B680B51F010F40094C0DF6623E4
:101D800092F3EE0FFF1F661F7A95CBF7EE27FF2722
:101D9000662777275F910895EFEFFFEF6FE77FEFFB
:101DA0005F910895EFEFFFEF6FE77FE75F91089591
:101DB0005F932FDF703851F3903841F3012408947A
:101DC000791F23F41CF300203AF3ECCF0F921F93FA
:101DD0002F933F934F93112722279927689FA001A4
:101DE0008F9F302D410D591F6B9F300D411D591F85
:101DF0008E9F27D0BF9F25D06A9F23D0BE9F1DD026
:101E0000AF9F1BD0AE9F110D291F391F491F591FAE
:101E1000E32FF42F652F522F4F913F912F911F9158
:101E20000F9066232AF0550FEE1FFF1F661F02C09A
:101E300073954BF2D2DE5F910895100D211D391F6D
:101E400002C0200D311D491F591F08955F93E1DE27
:101E5000703821F411200AF49FCFA4CF903809F4F0
:101E600095CF01240894970B1BF4D4F30020F3CFF3
:101E7000792F1F932F933F934F93112411272227DC
:101E800033274427552790E2AE17BF07860741073F
:101E900030F0AE1BBF0B860B410B089401C0889439
:101EA000551F221F331F111CAA1FBB1F881F441F51
:101EB0009A9551F7F901612D4F913F912F911F9103
:101EC000662332F0550FEE1FFF1F661F7A9543F20F
:101ED00084DE5F91089599239AF0772342F0971753
:101EE00048F029F4AE17BF07860720F031F0989428
:101EF000889408959894089408951894889408955F
:101F00007723C2F7971798F3A9F7EA17FB07680733
:101F100088F399F3ECCFEA0FFB1F681F791F089530
:101F2000F09560957095E195FF4F6F4F7F4F089545
:101F3000EE230E2EFD01BC0131F075956795F795E6
:101F4000E7950A94D1F70895EE0FFF1FEE0FFF1FDC
:101F50000895EF2FFF27E7FDFFEF08956F2F660F1E
:101F6000660B762F0895AE17E1E008F0EE2708958E
:101F7000EA17E1E008F0EE270895EA17FB07E1E031
:101F80000CF4EE270895EA17FB07E1E008F4EE27CA
:101F90000895ED91FD916D917C9113970895ED93C6
:101FA000FD936D937C930895A591B49108956894E1
:101FB00001C0E89401D078DE182E862F612D192EED
:101FC000972F712D1B2EBF2FF12D1A2EAE2FE12D25
:101FD0000895129602D0BF011297119602D0FE2FDB
:101FE0001197F999FECFFF93FFB7F894A1BDB2BD49
:101FF000F89AE0B5FFBFFF91089507D012960F0140
:10200000FB0103D0F0011297089507D01196EF93CA
:10201000EF2F03D0EF9111970895F99B02C0A89577
:10202000FCCF9FB7F894A1BDB2BDF89A80B5E81770
:1020300019F0E0BDFA9AF99A9FBF089500240A1694
:102040000B060806090608955A934A933A932A9371
:102050001A930A9308955D814C813B812A811981ED
:1020600008810895FFFFFFFFFFFFFFFFFFFFFFFF56
:10207000FFFFFFFFFFFFFFFFFFFFFFFFFFFFFFFF70
:10208000FFFFFFFFFFFFFFFFFFFFFFFFFFFFFFFF60
:10209000FFFFFFFFFFFFFFFFFFFFFFFFFFFFFFFF50
:1020A000FFFFFFFFFFFFFFFFFFFFFFFFFFFFFFFF40
:103800000C943A1C0C94B41C0C94001C0C94001CDA
:103810000C94001C0C94001C0C94001C0C94001CB8
:103820000C94001C0C94001C0C94001C0C94001CA8
:103830000C94001C0C94001C0C94001C0C94001C98
:103840000C94001C0C94001C0C94731C0C94001C15
:103850000C94911C0C94001C0C94001C0C94001CE7
:103860000C94001C0C94001C0200000003000B00D0
:1038700068380000F894EE27EFBBF1E0F5BFF2E006
:10388000F5BFF8E1A895A4B7A77FA4BFF0936000A7
:10389000E09360008DE0A2E0BB27ED938A95E9F705
:1038A00080E094E0A0E0B1E0ED930197E9F7ECE669
:1038B000F8E385919591009761F0A591B5910590F8
:1038C0001590BF01F00105900D920197E1F7FB0102
:1038D000F0CFE0E0EEBBEFEFEDBFE4E0EEBFC0E025
:1038E000D2E00C94381FEA93FA93EFB7EA931A9355
:1038F000F8941091C600E92D0E94541F10839394F0
:10390000E0E4E91509F499248394E0E4E81511F45E
:103910008824F09A78941991E991EFBFF991E9918F
:103920001895AA93EA93FA93EFB7EA93E0912103EB
:10393000E030A1F0E150E0932103E09120030E94E8
:10394000581FE081E093C600A0912003AF5FA093D1
:103950002003A03419F4E0E0E0932003E991EFBFE5
:10396000F991E991A9911895AA93EA93EFB7EA938F
:10397000A0916900A33041F45B9A0E945C1FE0E0D3
:10398000E0936900F19807C0E3E0E0936900E0ECA0
:10399000E093C100F19AE991EFBFE991A9911895DF
:1039A0001A930A9393D18F01F29B10C0002E012A23
:1039B00039F4E0914202EA93E2D00E2B1F2B02C0B1
:1039C0005B9AF1981A930A930CD003C00E945C1F73
:1039D0005B9AE0E0E09341029924F09809911991F3
:1039E00008950E94EE1F10E000E030E0A091C000BA
:1039F000A032E0F3A3E0B0E00E94CF1FE0935E02AC
:103A0000E9E1F0E00E94631F5B98E091C100E07C77
:103A1000E860E093C100EFE0F0E00E94631F10E077
:103A2000E0915E021E1760F4E12F0E94581FAFEF75
:103A3000A083E0912103EF5FE09321031F5FF0CFAC
:103A4000F39B05C0E12F0E94581FA1E004C0E12FA5
:103A50000E94581FA6E0A083E12F0E94581F0E94D9
:103A6000671F0E94671FE0813E271F5FEC81FD8179
:103A7000309749F50E94821FE0914402EE5F0E9458
:103A8000871F0E948A1FA09140020E948F1F0E94E0
:103A90008A1FA0E00E948F1FE0813E271F5F00E089
:103AA000E09144020E1770F40E94821F0E94921F40
:103AB000EB5BFD4FE0810E94871FE0813E271F5F87
:103AC0000F5FEECF41C00E94821FED2DEE5F0E947E
:103AD000871FE0813E271F5F0E94821FEC81FD81CE
:103AE0000E94C31F0E94871F0E948A1FAC810E94F0
:103AF0008F1FE0813E271F5F012F102FAD2DBB27A9
:103B00000E94921F0E94951FFCF4E12F0E94581FF3
:103B1000BF01A0914302BB27E0915E02F0E0AE1B23
:103B2000BF0BEE27A10FBE1FE2E0F0E00E94C81F0E
:103B3000EA1BFB0BE050FE4FE081DB010E94871F78
:103B4000E0813E271F5FDACFE12F0E94581F3083AC
:103B5000E1E0E093200310932103E091E002E09381
:103B6000C600E0912103E030E1F7EFE0F0E00E94D1
:103B7000631F5B9AF19888240E94F51F1FC10E9461
:103B8000EE1F10E000E030E0E0E0E0935F02E1E0F3
:103B9000E0934402EC81E030A9F4ECE0E0934402CD
:103BA00011E01C3078F40E949C1FEB5BFD4F0F016D
:103BB000A12FB0E0A050B0400E94CF1FD001EC93E5
:103BC0001F5FEFCFAC81A63061F40E949F1FEC5FB6
:103BD000FD4FB080A9E1B0E0EB2D0E94DB1FB09259
:103BE0004502AC81A031A1F4E3E0E093440211E08E
:103BF000143070F40E949C1FDF01EB5BFD4F0F013E
:103C0000AF59BF4F0E94CF1FD001EC931F5FF0CF81
:103C1000AC81A331C9F4E3E0E093440210E0133037
:103C200098F40E949C1FBF01EE59FF4F0F010E94A4
:103C30009F1F3496E60FF71FE050FE4FE081D00142
:103C40000E94DB1F1F5FEBCFAC81AA3A10F40C94EB
:103C5000601EAA3A79F5EC2DA0E2EA02102DEC2DB7
:103C6000F0E03196EE0FFF1F0E94BA1FA12FB0E0C7
:103C7000AE17BF07ACF40E949C1FE05AFD4F0F0126
:103C80000E949F1F3496DF01E32FF0E0EA0FFB1F35
:103C9000E050FE4FE081D001EC931F5F3F5FDFCF2C
:103CA000E3E0EC1529F4F894A7D07894CC2401C073
:103CB000C39403C0E1E1E0935F02ECE0E0934502CE
:103CC0000E94921F0E94F51F259608950E94EC1FE6
:103CD00010E000E030E020E040E050E0E0E0E09381
:103CE0004102F29AE02F0E94541FA081AF3F41F49D
:103CF000093020F0E0E9E09341025BC00F5FF2CFB2
:103D000000934302102FE02F0E94541FA081A23085
:103D100019F0E2E0E0934102E12F0E94541F0E945B
:103D2000A31FE081E07319F0E0E9E0934102E12F85
:103D30000E94541FE081EF700E2EA9E1B0E00E94B6
:103D4000CF1FE01511F4F29A01C0F298E12FACD028
:103D50000E94A31FE081E0934202E12FA5D00E94C0
:103D6000A31FD080E12FA0D00E94AA1F1F5F212F88
:103D7000022F122FA22FBB27ED2DF0E00E94951FDE
:103D800044F40F5FE12F90D00E94AA1F3F5F1F5F96
:103D9000F1CF101719F0E0E9E0934102E12F84D050
:103DA000A081FA01B0E0EA17FB0719F0E8E8E09318
:103DB0004102E0914102F0E00E94F31F269608952F
:103DC000E0E0E5B9ECE2E4B9539A5B9AE0E0E09315
:103DD0006E00E4BDE5BDE6BDE0ECE093C100E6E0C9
:103DE000E093C200E7E1E093C400E3E0E093690000
:103DF000E1E0EDBBECBB08951A9310E010E0103841
:103E0000F8F49AD00F01E05AFD4FA081B0E0F00124
:103E1000EF59FD4FF081E0E0EA0FFB1F1F01E7B70C
:103E2000E0FDFDCF89D0E40DF51D3F01E1E0AE2EB0
:103E3000F301132C022CA0925700E8951E5FDFCFF0
:103E4000E7B7E0FDFDCFE3E0AE2EF201A092570010
:103E5000E895E7B7E0FDFDCFE5E0AE2EF201A092D8
:103E60005700E895F201E058FF4F2F01199108958E
:103E7000A7DF7894A895A0E0B0E00E94CF1FE09360
:103E80005F021AD05B9AA895F19B02C00E94D01CD9
:103E9000A0915F02A13131F4E1E0E5BFE0E0E5BFD0
:103EA0000C940000F0CFFFCFF0E0E050FE4F0895FB
:103EB000F0E0E052FD4F0895E091C100E07CE06148
:103EC000E093C1000895FA93EA930C94AF1FE08148
:103ED0003E271F5FE12FF0E0BF01E052FD4F0F01D1
:103EE000A0914302BB27E0915E02F0E0AE1BBF0B46
:103EF000FB01EA0FFB1FE050FE4FE081D001EC9385
:103F0000E12FD6CFA12FB0E0A052BD4F0895EC9382
:103F1000E12FCECFE0813E271F5FE12FC9CFA083E5
:103F2000E12FC6CFE02FF0E00895EA0FFB1FA12F8D
:103F3000B0E0AE17BF070895E12FF0E00895E091DB
:103F40004302F0E00895E081F0E04E275F271F5F15
:103F5000E12FAACFE081F0E04E275F270895E99195
:103F6000F991309631F089E98A95F1F7A895319762
:103F7000D1F70895EE0FFF1FEE0FFF1FEE0FFF1F8B
:103F8000EE0FFF1F0895EF2FFF27E7FDFFEF0895C6
:103F90001B2EBF2FF12D1A2EAE2FE12D0895F9996A
:103FA000FECFFF93FFB7F894A1BDB2BDF89AE0B57C
:103FB000FFBFFF910895F99B02C0A895FCCF9FB762
:103FC000F894A1BDB2BDF89A80B5E81719F0E0BD2C
:103FD000FA9AF99A9FBF08955A934A933A932A936B
:103FE0001A930A9308955D814C813B812A8119813E
:103FF00008810895FFFFFFFFFFFFFFFFFFFFFFFFA7
:00000001FF
