:0C3800000C943A1C0C94B31C0C94001C9B
:10380C000C94001C0C94001C0C94001C0C94001CBC
:10381C000C94001C0C94001C0C94001C0C94001CAC
:10382C000C94001C0C94001C0C94001C0C94001C9C
:10383C000C94001C0C94001C0C94001C0C94731C19
:10384C000C94001C0C94921C0C94001C0C94001CEA
:10385C000C94001C0C94001C0C94001C0200000026
:10386C0003000B0068380000F894EE27EFBBF1E082
:10387C00F5BFF2E0F5BFF8E1A895A4B7A77FA4BF08
:10388C00F0936000E09360008DE0A2E0BB27ED9325
:10389C008A95E9F780E094E0A0E0B1E0ED93019720
:1038AC00E9F7ECE6F8E385919591009761F0A59125
:1038BC00B59105901590BF01F00105900D920197FF
:1038CC00E1F7FB01F0CFE0E0EEBBEFEFEDBFE4E0A2
:1038DC00EEBFC0E0D2E00C94E81EEA93FA93EFB787
:1038EC00EA931A93F8941091C600E92DF0E0E05099
:1038FC00FE4F10839394E0E4E91509F49924839422
:10390C00E0E4E81511F48824F09A78941991E9917F
:10391C00EFBFF991E9911895AA93EA93FA93EFB74F
:10392C00EA93E0912303E03091F0E150E09323031C
:10393C00E09122035AD2E093C600A0912203AF5F1C
:10394C00A0932203A03419F4E0E0E0932203E99160
:10395C00EFBFF991E991A9911895AA93EA93EFB762
:10396C00EA93A0916900A33039F45B9A43D2E0E06A
:10397C00E0936900F19807C0E3E0E0936900E0ECA4
:10398C00E093C100F19AE991EFBFE991A9911895E3
:10399C001A930A9346D18F01F29B0EC0002E012A76
:1039AC0031F4A0914202C9D00E2B1F2B02C05B9A9E
:1039BC00F198D8010BD002C01DD25B9AE0E0E093E5
:1039CC0041029924F098099119910895BA93AA93F8
:1039DC0018D2A091C000A032E0F3A3E0B0E09DD2D9
:1039EC00E0935E02A9E1B0E07AD25B98E091C1006D
:1039FC00E07CE860E093C100AFE0B0E070D210E092
:103A0C00E0915E021E1750F401D2AFEFA083E0915B
:103A1C002303EF5FE09323031F5FF2CFF39B03C0FD
:103A2C00F5D1A1E002C0F2D1A6E0A083E12FDDD157
:103A3C003E271F5FEBD1EFD13E271F5FE7D1EBD1C4
:103A4C003E271F5FEC81FD81309741F5F8D1E09165
:103A5C004402FAD13E271F5FD9D1A0914002A08326
:103A6C00E12FC3D13E271F5FD1D1A0E0A083E12F6E
:103A7C00BCD13E271F5F00E0E09144020E1768F4B2
:103A8C00DED1E02FF0E0EB5BFD4FE081EC93E12F1A
:103A9C00ACD13E271F5F0F5FEFCF38C0D0D1ED2DDB
:103AAC00D3D13E271F5FCBD1EC81FD812AD2EC9381
:103ABC00E12F9BD13E271F5FA9D1AC81A083E12FC1
:103ACC0094D13E271F5F012F102FAD2DBB27E02F68
:103ADC00BFD1E4F49BD1BF01A0914302BB27E0917D
:103AEC005E02F0E0AE1BBF0BEE27A10FBE1FE2E0A3
:103AFC00F0E00CD2EA1BFB0BE050FE4FE081DB0147
:103B0C00EC93E12F72D13E271F5FDFCF7FD1308343
:103B1C00E1E0E093220310932303E091E202E093AF
:103B2C00C600E0912303E030E1F7AFE0B0E0D7D17D
:103B3C005B9AF198882417D2D2C0AA9362D1E1E0A3
:103B4C00E0934402EC81E03081F4ECE0E093440239
:103B5C0011E01C3050F484D1A12FB0E0A050B04043
:103B6C00DCD1D001EC931F5FF4CFAC81A63061F4B3
:103B7C00E0914302F0E0EC5FFD4FB080A9E1B0E0D2
:103B8C00EB2DD7D1B0924502AC81A03159F46ED156
:103B9C00133040F465D16FD1DF01BFD1D001EC936C
:103BAC001F5FF6CFAC81A33151F460D1133038F4E0
:103BBC0062D166D1E12F6BD1BCD11F5FF7CFAC8145
:103BCC00AA3A50F1AA3A09F5EC2DA0E2EA02102D1E
:103BDC00EC2DF0E03196EE0FFF1F8AD1A12FB0E053
:103BEC00AE17BF0744F45BD14BD1E32F50D1EC930C
:103BFC001F5F3F5FEDCFE3E0EC1529F4F89490D014
:103C0C007894CC2401C0C39404C0E1E1E0935F023A
:103C1C00CC24ECE0E0934502E02FF0E0A4D1259613
:103C2C00089598D110E000E030E020E040E050E052
:103C3C00E0E0E0934102F29A37D1AF3F41F4093012
:103C4C0020F0E0E9E093410246C00F5FF5CF00930E
:103C5C004302102F29D1A23019F0E2E0E093410287
:103C6C0029D12ED1E07319F0E0E9E093410222D181
:103C7C00EF700E2EA9E1B0E050D1E01511F4F29ADC
:103C8C0001C0F29817D11CD1E093420213D11DD17F
:103C9C0021D1D0800FD119D1212F022F122FA22F79
:103CAC00BB27ED2DD5D044F40F5F04D1F0E04E27A7
:103CBC005F273F5F1F5FF3CF101719F0E0E9E09328
:103CCC00410208D1A081FA01B0E0EA17FB0719F014
:103CDC00E8E8E0934102E0914102F0E042D12696FF
:103CEC000895E0E0E5B9ECE2E4B9539A5B9AE0E0C0
:103CFC00E0936E00E4BDE5BDE6BDE0ECE093C100F1
:103D0C00E6E0E093C200E7E1E093C400E3E0E09377
:103D1C006900E1E0EDBBECBBE5BFE3E0E5BF089576
:103D2C001A9310E010E01038F0F4B9D0A081B0E094
:103D3C00E12FF0E0EF59FD4FF081E0E0EA0FFB1FBF
:103D4C001F01E7B7E0FDFDCFE12FF0E0E40DF51D1D
:103D5C003F01E1E0AE2EF301132C022CA092570090
:103D6C00E8951E5FE0CFE7B7E0FDFDCFE3E0AE2EB8
:103D7C00F201A0925700E895E7B7E0FDFDCFE5E032
:103D8C00AE2EF201A0925700E895F201E058FF4FD9
:103D9C002F01199108957894A8EEB3E0A0D0E1E03A
:103DAC00E5BFE0E0E5BFA0E0B0E0E1E1C2D0E0E0DB
:103DBC00E093E002E093E102E091E002F091E10295
:103DCC00099508958EDF7894A0E0B0E0A6D0E0933A
:103DDC005F0210D05B9AA895F199DADDA0915F0291
:103DEC00A13109F4D8DFF7CFFFCFF0E0EE51FD4F52
:103DFC00E0810895E091C100E07CE061E093C100B6
:103E0C000895AAD010E000E030E00895E12FF0E032
:103E1C00EE51FD4F08950F01A0914302BB27E09195
:103E2C005E02F0E0AE1BBF0BE12FF0E0EA0FFB1FD0
:103E3C00E050FE4FE081D001EC93E12FD6CFA12FC3
:103E4C00B0E0AE51BD4F0895EE5FEC93E12FCDCFB6
:103E5C00F0E0EA0FFB1FA12FB0E0AE17BF070895EB
:103E6C00E12FF0E0EB5BFD4F0F010895E3E0E093F1
:103E7C00440210E00895E12FF0E0EE59FF4F089551
:103E8C000F01E0914302F0E03496DF010895F0E079
:103E9C00EA0FFB1FE050FE4FE081D0010895E12FA7
:103EAC00F0E0E05AFD4F0895E02FF0E0E050FE4FB7
:103EBC00A0810895E12FF0E0E050FE4FE0810895DD
:103ECC00F0E04E275F271F5FF5CFF0E04E275F270E
:103EDC001F5F0895E12FF0E0E050FE4F089510961B
:103EEC0031F089E98A95F1F7A8951197D1F70895E2
:103EFC00EE0FFF1FEE0FFF1FEE0FFF1FEE0FFF1F4A
:103F0C000895EF2FFF27E7FDFFEF08951B2EBF2F1E
:103F1C00F12D1A2EAE2FE12D0895F999FECFFF93B6
:103F2C00FFB7F894A1BDB2BDF89AE0B5FFBFFF9101
:103F3C000895F99B02C0A895FCCF9FB7F894A1BD3A
:103F4C00B2BDF89A80B5E81719F0E0BDFA9AF99A63
:103F5C009FBF08955A934A933A932A931A930A93BC
:103F6C0008955D814C813B812A81198108810895D6
:00000001FF
